:020000040000FA
:060000008A150A16002C0F
:020008000800EE
:100020008A150A1600208A110A12BA21F012E40178
:100030008611701183120313F801F901FA01FB0113
:10004000FC01FD01FE01FF01203084000221A0001F
:100050002430200203199B2B3C302002031D26284C
:10006000840AD2010230DF000221D207D8208000AA
:10007000840ADF0B34282208D100210ED104063077
:100080005102DF000221D207D8208000840ADF0B52
:1000900042280230DF000221D8208000840ADF0BD2
:1000A0004B280221DE003E305E02031D7E288403C1
:1000B0000008DE008403000EDE0452085E02031D09
:1000C00087288313243084000008D3008403000EA3
:1000D000D304D30803197B284E30530203187B281E
:1000E000061186154A30530703300318013E8A0073
:1000F00053084A2318280030E30096280130E30013
:1001000096280230E30096280330E3009628043056
:10011000E30096280530E30096280630E300962891
:100120000730E30096280830E30096280A30D10013
:100130000030D30083172030840063088000061548
:1001400070155121182841346C346C3420345934E2
:100150006F3475347234203442346134733465340E
:1001600020344134723465342034423465346C3484
:100170006F346E346734203454346F342034553443
:060180007334203420342A
:100190003D3081000B110800D83081000B110800A0
:1001A000F63081000B110800EC3081000B110800C3
:1001B000F700F6000F30F605473077020318E628FF
:1001C00041307702031CE6280930F607760808005C
:1001D000CA00CB00F030CB054B0EF420CB000F3023
:1001E0004A05F420CA000800F6000A307602031C13
:1001F000FC2837307607FE28303076070800F01CE0
:1002000013293829F01C0529212983120313F01A18
:10021000112906148316891B0E290B298312061037
:10022000080806100800F01A202983128C13880091
:1002300006148316091B1A2983128C1F1D29061008
:100240000800831203138C1A292986128C1A292973
:1002500026291A0833291819312998183129030138
:100260003329181218168616CC01CC0B3529080034
:10027000D0000C1E3929500899008316981C3E297D
:10028000422983128312080004305102CE008313E6
:1002900021308400D2010008D207840ACE0B4B29FA
:1002A00008008313203084005B308000840A5108EA
:1002B000E8204B088000840A4A088000840A53081A
:1002C000E8204B088000840A4A088000840A701DD8
:1002D000862908305102CE000310CE0C2530CF0005
:1002E00083172030F7008317770884000008E82080
:1002F00083134F0884004B088000CF0A840A4A0801
:100300008000CF0A8317F70ACE0B732944210330EC
:100310005102F6002030760784005208E8204B088E
:100320008000840A4A088000840A5D3080005108F9
:10033000CE008313203084000008FF20840ACE0BF7
:100340009C290800831203138616831640309900F7
:10035000831218121A081A081816080083120313B9
:100360008616831615309900831218121A081A0877
:100370001816080003138316D0308700A000051458
:100380008514851504309F00831280309F00EA2277
:100390000A3060060319CE290030CF298030D600FC
:1003A00090220800BA210313831286157208D50023
:1003B000F82283120317203084008317800103136F
:1003C00083127C2233301E02031CEB299A301E025A
:1003D0000318EF29F229831701308000F2298317CF
:1003E00080308000840A8317800182228A301E02B6
:1003F000031CFF29AA301E02031C062A032A8317A6
:1004000001308000062A831780308000840A831719
:10041000800103138312EA22762200301E02031C9D
:10042000162A24301E0203181A2A1D2A83170130A7
:1004300080001D2A831780308000840A8317800182
:1004400003138312DC227C2233301E02031C2D2A6C
:100450009A301E020318312A342A83170130800093
:10046000342A831780308000840A83178001C722D2
:1004700076228A301E02031C422AAA301E0203186A
:10048000462A492A831701308000492A8317803081
:100490008000031383125508F2007218C722F21865
:1004A000DC227219EA22F219F82286110800D7011B
:1004B0008317203084008316031386150615031353
:1004C0008312CC200B1D622A061D682A0F30D70428
:1004D000861D6C2AF030D7045708831780008316D6
:1004E00003138611061103138312080003138312EA
:1004F0009F121F129F11882A031383129F121F122B
:100500009F15882A031383129F121F169F15882A8E
:1005100046231F1446231F151F198C2A1F1008007D
:100520000313831286101130D4009E225608D40083
:100530009E228614D0200B1D9B2A080003138312D1
:100540000830CD00D40D031CA72A8617A82A8613CD
:10055000000000000000000006170000000000007E
:1005600000000613CD0BA22A080003138312861481
:1005700006178617080003138312861406178613BE
:10058000080003138312861406178613080003134A
:1005900083120708D8005815D81458105808870037
:1005A0007214F2107211F2118A110A12C8208A1103
:1005B0000A120B1DD92A0800031383120708D8005A
:1005C0005815D8105814580887007210F214721178
:1005D000F2110800031383120708D8005811D81429
:1005E0005814580887007210F2107215F2110800A2
:1005F000031383120708D8005815D8145814580844
:1006000087007210F2107211F215080003138312A2
:100610009412031383162016A01220088700831259
:1006200085160800031383129412031383162016F1
:10063000A016200887008312851208000313831276
:10064000941203138316A011200887008312051546
:10065000080003138312941203138316A0152008B5
:10066000870083120511080003138312051281010C
:100670000B110B1D392B7212080003138312051680
:1006800081010B110B1D422B72160800CC01CC0B03
:10069000472B080082070000AE2BBA2BC22BCA2BB7
:1006A000DE2BF02B022C0E2CDE2EDE2EDE2EDE2E8E
:1006B000DE2EDE2EDE2EDE2E162C1B2CDE2EDE2E69
:1006C000DE2EDE2EDE2EDE2EDE2EDE2E352CDE2E75
:1006D000DE2E422CDE2EDE2EDE2EDE2E692C762C39
:1006E000832C912C9C2CA72CB62CC12CD52C1B2DEB
:1006F0004A2D552D672D6E2DDE2EDE2E752D942D57
:10070000A72DDE2EC02DDE2ED32DDE2EE42DFE2DC8
:10071000182E202E2E2E3A2E462E522E5E2E6A2E69
:10072000762E822E8E2E9C2EA82EB42EC02ECA2E51
:10073000D42EDE2E08000530DF0021308400022197
:100740008000840ADF0B9F2BDE000D305E02031D4C
:100750007B283030FF203230FF2018280E30D100A7
:100760000130D3008A110A1600208A110A1270156E
:10077000512108001230D1000230D300D22170156F
:10078000512108000A30D1000330D3007015013028
:10079000DB00D82F0E30D1000430D30070150230AA
:1007A000DB008A150A1607208A110A12711CDB2B3E
:1007B0000730E3006A277015512108000830D10086
:1007C0000530D30083132608DE00250EDE04DE0884
:1007D0000319EB2BED2B3D23EE2B34235121080085
:1007E0000830D1000630D3002608E500250EE504C8
:1007F0002808E600270EE6042908E7002A0EE70489
:10080000512108000A30D1000730D3008A110A169E
:100810000C208A110A127015512108000A30D100EB
:100820000830D3005722701551210800831203139A
:10083000F016061008000830D1001230D3008313E0
:100840002608DE00250EDE04DE080319282C2E2CD7
:100850008A110A16B3218A110A12332C8A110A1638
:10086000B3218A110A12512108000830D1001B302F
:10087000D3008A110A16AA218A110A120430DB0059
:10088000172708000830D1001E30D3008A110A163D
:10089000AA218A110A120330DB00EC260800083076
:1008A000D1002130D3008A110A16AD218A110A1213
:1008B0000930DB00EC2608000830D1002230D300DC
:1008C0008A110A16AD218A110A120A30DB00172795
:1008D00008000830D1002330D3008A110A16B02155
:1008E0008A110A121C30DB00EC2608000830D10007
:1008F0002430D3008A110A16B0218A110A121D3041
:10090000DB00172708000830D1002530D3007627F8
:100910008A110A1679218A110A127F278A110A126E
:1009200008000830D1002630D3008A110A16882129
:100930008A110A12512108000830D1002730D30053
:100940008A110A168B218A110A12512108000830D7
:10095000D1002830D3008A110A16B3218A110A1255
:100960008A110A1251218A110A12DE2E0830D10092
:100970002930D3008A110A1679218A110A125121CD
:1009800008000830D1002A30D300E0018313260884
:10099000E000250EE0045121013060060319E01744
:1009A000023060060319E01708000830D1002B3030
:1009B000D3002608DE00250EDE0400305E02031997
:1009C000EC2C01305E020319042D02305E02031983
:1009D000EA2C192DEA22192DEA22C8200B1DEE2C33
:1009E000DC22C8200B1DF22C29238719192D1E2368
:1009F000871587112923C8208719192D0B1DFC2C59
:100A00000730E3006A27192DEA22C8200B1D062DA6
:100A1000DC221E238715871129231930DB008A1554
:100A20000A1607208A110A12711C192D0730E300DB
:100A30006A27512108000A30D1002C30D300070862
:100A4000DE000730DE0503305E0203192F2D05306E
:100A50005E020319312D0030D30003303F2D0230E8
:100A60003F2D2923871D3D2D5030DF00871D3D2D53
:100A7000DF03031D362D00303F2D01303F2DDE00FA
:100A8000831720308400831203135E0880007015E2
:100A900051210800EA22C8200B1D4C2DDC22083011
:100AA000D1002D30D300512108000830D1002E3064
:100AB000D3001E23FF30DE008715DE0B5D2DFF30D7
:100AC000DE008711DE0B622D29235121080008303A
:100AD000D1002F30D3001A30DB00D82F0830D100DE
:100AE0003030D3001930DB00D82F0830D10033303C
:100AF000D3002608DE00250EDE0400305E02031D52
:100B0000832DEA22922D01305E02031D892DDC2205
:100B1000922D02305E02031D8F2DC722922D0630CA
:100B2000E3006A27512108000A30D1003430D30095
:100B30008317203084007C22831203131E08831243
:100B400003178000831203137015512108000A3027
:100B5000D1003530D3008317203084008A110A1267
:100B6000C7227622EA228A110A12831203131E0870
:100B7000831203178000831203137015512108009C
:100B80000A30D1003730D30083172030840082220E
:100B9000831203131E0883120317800083120313AA
:100BA0007015512108000830D1003930D300952745
:100BB0008A150A16A1208A110A12F11CE22D70165C
:100BC0000730E300A12708000830D1003B30D300F4
:100BD0002508DE0001305E020319F22D0630E30025
:100BE0006A27FC2D8A110A16A7218A110A12711D83
:100BF000FC2D0730E3006A27512108000830D1009E
:100C00003C30D300F801F901FA01FB01FC01FD01C0
:100C1000FE01FF018A150A16A1208A110A12292352
:100C2000871D0F2E162E0730E3006A27512108007A
:100C30001030D1003D30D30070150D30DB00D82FBF
:100C40000830D1003E30D30076278A110A16B3212E
:100C50008A110A127F278A110A1208000830D1006F
:100C60003F30D30095278A110A16B3218A110A1240
:100C7000A12708000830D1004030D30076278A1120
:100C80000A1631218A110A127F2708000830D10084
:100C90004130D30095278A110A1692208A110A1230
:100CA000A12708000830D1004230D30048278A111C
:100CB0000A16A7218A110A12512108000830D10012
:100CC0004330D30095278A110A1612208A110A127E
:100CD000A12708000830D1004430D30095278A119D
:100CE0000A1634208A110A12A12708000830D10000
:100CF0004530D30095278A110A1671208A110A12ED
:100D0000A12708000830D1004630D30095278A116A
:100D10000A164F208A110A12A12708000830D100B4
:100D20004730D30076278A110A16AE208A110A129C
:100D30007F278A110A1208000830D1004830D300FA
:100D400076278A110A16D3208A110A127F270800F3
:100D50000830D1004930D30076278A110A161221B3
:100D60008A110A127F2708000830D1004A30D300C8
:100D700076278A110A16F3208A110A127F270800A3
:100D80000830D1004B30D3002608E400250EE404DF
:100D9000512108000830D1004C30D3005121C82027
:100DA0000B1DD02EA22108000830D1004D30D300F9
:100DB0005121C8200B1DDA2EAE2108000030E300BF
:100DC0000A30D1000030D30083172030840063083C
:100DD000800070155121080048278A150A1607203F
:100DE0008A110A12711CF82E0730E3006A27152FAA
:100DF0005121D0200B1DFA2E7B30FF20D0200B1D5F
:100E0000FF2ED2018A150A166D218A110A12520884
:100E1000E8204B08FF204A08FF20D0200B1D0E2F92
:100E20007D30FF20D0200B1D132F512108004827B3
:100E30008A150A1607208A110A12711C232F0730FF
:100E4000E3006A27462F512102217B3C03192C2FF6
:100E50000130E3006A27462FD2018A150A16842141
:100E60008A110A120221D820DE00DE0E0221D820CB
:100E70005E04520203193F2F0430E3007016022172
:100E80007D3C0319462F0130E3006A2751210800F9
:100E900083132C08F8002B0EF8042A08F900290EF9
:100EA000F9042808FA00270EFA042608FB00250E8C
:100EB000FB043408FC00330EFC043208FD00310E44
:100EC000FD043008FE002F0EFE042E08FF002D0E3C
:100ED000FF0408000A30D1000030D30070158317DA
:100EE000203084006308800006150800482751213F
:100EF000D0200B1D792F7B30FF20D2010800520833
:100F0000E8204B08FF204A08FF207D30FF20F11E1B
:100F1000932F0A30D1000030D30070158317203092
:100F20008400630880005121080070124827512175
:100F300002217B3C03199F2F0130E3007016D20180
:100F400008000221D820DE00DE0E0221D8205E0437
:100F500052020319AE2F0430E300701602217D3CCB
:100F60000319B52F0130E300701603138312701EAE
:100F7000C32F0A30D1000030D30070158317203002
:100F800084006308800051210800E8204B08D20744
:100F9000FF204A08D207FF2008000221D207D820EC
:100FA000CB00CB0E0221D207D820CB044B0808007F
:100FB0008A150A1607208A110A12711CE22F0730BF
:080FC000E3006A27512108003B
:1010000008308A00600882070034003400344E2D16
:101010006A2D802DC62DC72DC82DC92DEE2DF52D7D
:10102000FF2D072E08308A00600882070034003444
:101030000034082E262E802E812E0B2F0C2F0D2FE4
:101040000E2F0F2F102F112F08308A0060088207F3
:101050000034003400344E2D792D802D792D802DD3
:10106000792DE62D792DFF34802D08308A00600817
:1010700082070034003400344E2D722D802D722DE5
:10108000802D722DDC2D722DFF34802D08308A00CA
:10109000600882070034003400340134083401341D
:1010A0000434013404340134013401340134013492
:1010B0000234023408308A006008820700340034A9
:1010C0000034013404340134043401340434013470
:1010D0000134013401340134023402342E29083041
:1010E0008A0060088207003400340034F22A122B90
:1010F000372B442B912B922B932B942BA82BB82B73
:10110000C62B08308A00600882070034003400349F
:10111000C72BCD2BCE2BCF2BD02BD12BD72BD82BF6
:10112000DF2BE62BEC2B08308A00600882070034A6
:1011300000340034ED2C022D1A2D212D402D412D8F
:10114000422D432D452D462D4D2D08308A00600837
:101150008207003400340034622C852CAA2CB72C72
:10116000B82CB92CBA2CBB2CCF2CDE2CEC2C083094
:101170008A0060088207003400340034ED2B092C0B
:101180001B2C1C2C342C352C362C442C452C532C4D
:02119000612CD0
:1012000002293422BD08031D0829BC0803190E2930
:101210000130BC0203180129BD02012908000E2279
:10122000602108002122602108000E2260210800B0
:101230008A110A168E218A150A12871287118A11BD
:101240000A12C7228A150A127908BD007808BC0064
:1012500021303D0603192D29002108008A110A16A4
:101260008E218A150A12871287118A110A12C72243
:101270008A150A127908BD007808BC0008008A1196
:101280000A168E218A150A12871287118A110A12EC
:10129000C7228A150A12C221A2217908BD00780846
:1012A000BC00002108008A110A168E218A150A1234
:1012B000871287118A110A12EA228A150A12080077
:1012C000BA01BB018A110A1695218A150A128715DF
:1012D00087110830CD00871587110310871A031472
:1012E000BA0CCD0B6B290630CD0087158711031082
:1012F000871A0314BB0CCD0B7529BB0CBB0C8715CF
:1013000087118A110A168E218A150A12080087127F
:10131000871587110830CD008716B80C031C87127B
:1013200087158711CD0B8C290630CD008716B90C97
:10133000031C871287158711CD0B962987128715F5
:10134000871108003908C6003808C500FF30B90009
:10135000B80087214608B9004508B80008000130E8
:10136000F700B8290230F700B8290430F700B8298F
:101370008A110A12CC208A150A120B1DBD29F70BFF
:10138000B8290800871287158711871287158711DA
:10139000871287158711871287158711871287157E
:1013A00087118712871587110800871687158711FF
:1013B000871287158711871287158711871287155E
:1013C00087118712871587118712871587110800E3
:1013D000871287158711871687158711871287153A
:1013E0008711871287158711871287158711871232
:1013F00087158711080087168715871187168715A7
:101400008711871287158711871287158711871211
:10141000871587118712871587110800871287158E
:1014200087118712871587118716871587118712ED
:1014300087158711871287158711871287158711DE
:101440000800871687158711871287158711871659
:1014500087158711871287158711871287158711BE
:10146000871287158711080087128715871187163D
:10147000871587118716871587118712871587119A
:10148000871287158711871287158711080087161D
:101490008715871187168715871187168715871176
:1014A000871287158711871287158711871287156D
:1014B00087110800871287158711871287158711F2
:1014C0008712871587118716871587118712871549
:1014D00087118712871587110800871687158711CE
:1014E0008712871587118712871587118716871529
:1014F00087118712871587118712871587110800B2
:101500008712871587118716871587118712871508
:1015100087118716871587118712871587118712FC
:101520008715871108008716871587118716871575
:1015300087118712871587118716871587118712DC
:10154000871587118712871587110800871287155D
:1015500087118716871587118716871587118716B4
:1015600087158711871287158711871287158711AD
:101570000800871287158711871287158711871230
:101580008715871187168715871187168715871185
:101590008712871587110800871687158711871608
:1015A0008715871187168715871187128715871169
:1015B00087168715871187128715871108008716E8
:1015C0008715871187168715871187168715871145
:1015D0008716871587118716871587118712871534
:1015E000871108008A110A166D21B8006D21B90013
:1015F0008A150A12E82187210130640203190D2B94
:101600008A110A127C228A150A1276301E02031CE5
:101610000D2BB922B521C001112B5A22B521B521BC
:10162000C00108008A110A166D21B8006D21B900A9
:101630008A150A12E8218721C00A47084006031DBF
:10164000362BE408031D322B8A110A127C228A15DC
:101650000A1276301E02031C322BB922AF21CC2293
:10166000C001362B5A22B521B521C00108008A11CC
:101670000A166D21B8006D21B9008A150A12E821F9
:1016800087215A22B5210800E40803197D2B482B35
:101690005321AF21F901F8011821FF30B800B9003A
:1016A000E82187215A22B221B221CC220830C6007B
:1016B0008A110A166D21B8006D21B9008A150A1227
:1016C000E82187210330C50034228A110A166D21D2
:1016D000B8006D21B9008A150A12E8218721C50BCF
:1016E000642BB922B221B221CC223422C60B582B52
:1016F000FF01FE01FD01FC01902B8A110A166D21EC
:10170000B8006D21B9008A150A12E8218721C00AA4
:1017100004304006031D902BB922B221CC22C00117
:101720000800372B442B372B8A110A166D21B8007D
:101730006D21B9008A150A12E8218721C00A4708DD
:101740004006031DA72B5A22AF21A622C001080084
:101750008A110A166D21B8006D21B9008A150A1286
:10176000E8218721C00AB922B221A6220000080080
:101770008A110A166D21B8006D21B9008A150A1266
:10178000E82187215A22B521B2210800B82BE8218F
:1017900087215A22B521B5210800C72BC72BC72B9B
:1017A000C72BE82187215A22B221CC220800C72B5F
:1017B000E82187215A225A22AF21A6220800E821D7
:1017C0008721B922B221A62200000800E821872142
:1017D0005A22B521B2210800E62B8A110A166D2182
:1017E000B8006D21B9008A150A12E8218721E408A2
:1017F000031D062C8A110A127C228A150A127630E1
:101800001E02031C062CB922B521082C5A22B52130
:1018100008008A110A166D21B8006D21B9008A15D9
:101820000A12E8218721B922AF21CC221A2C5A2290
:10183000B521B5210800092CFF30B800B900E82116
:1018400087215A22B221B221CC228A110A166D2197
:10185000B8006D21B9008A150A12E8218721B92242
:10186000B221B221CC220800092C1C2C8A110A16A4
:101870006D21B8006D21B9008A150A12E82187216F
:101880005A22B521B5210800092C8A110A166D21AA
:10189000B8006D21B9008A150A12E821B922B221D7
:1018A000A622000008008A110A166D21B8006D21D9
:1018B000B9008A150A12E8218721B922B521B2217F
:1018C0000800532C8A110A166D21B8006D21B90049
:1018D0008A150A12E8218721C00A48084006031D1C
:1018E000842CE408031D812C8A110A127C228A159B
:1018F0000A1276301E02031C812CB922B521C001C8
:10190000842C5A22B521C00108008A110A166D21C3
:10191000B8006D21B9008A150A12E8218721C00A92
:1019200048084006031DA92CE408031DA52C8A11B4
:101930000A127C228A150A1273301E02031CA52C7F
:10194000B922AF21CC22C001A92C5A22B521B52140
:10195000C00108008A110A166D21B8006D21B90076
:101960008A150A12E82187215A22B5210800442B42
:10197000AA2CB72CAA2C8A110A166D21B8006D2149
:10198000B9008A150A12E8218721C00A48084006D2
:10199000031DCE2C5A22AF21A622C00108008A11B5
:1019A0000A166D21B8006D21B9008A150A12E821C6
:1019B0008721B922B221A622000008008A110A1646
:1019C0006D21B8006D21B9008A150A12E82187211E
:1019D0005A22B521B2210800DE2CFB218721E40820
:1019E000031DFE2C8A110A127C228A150A127630F7
:1019F0001E02031CFE2CB922B521002D5A22B5214E
:101A000034220800FB218721E408031D152D8A11CB
:101A10000A127C228A150A1276301E02031C152D2A
:101A2000B922B521B521CC22182D5A22B521B521D4
:101A300034220800FB2187215A22B521B521342206
:101A40000800FB218721E408031D342D8A110A12A6
:101A50007C228A150A1276301E02031C342DB9220C
:101A6000B521B521CC223E2D5A22B221B221B2217C
:101A7000B221CC22B922B221B221CC2234220800D8
:101A80001A2D212D1A2D00340800FF34FB21872147
:101A90005A22B521B22134220800462D2030F90007
:101AA0000730F8003F210F21BB123B133B08B90060
:101AB0003A08B800C72353212030F9000730F80056
:101AC0003F21D52147225A22B521B521D5214722D0
:101AD00053210800F801F9013F21DF22B521B5218A
:101AE000532108006D22B521B5215A22B521B52117
:101AF00008009322B521B5215A22B521B52108004D
:101B000018210430C500FF30C6003422C60B852DD5
:101B1000C50B832D34223422342215213A08C20009
:101B20003B08C30053213F210F2143133B1A4317A6
:101B3000C313BB1AC317C221A2216D22B521B5213F
:101B40009322B521B521532118210430C500FF305F
:101B5000C6003422C60BA92DC50BA72D3422342272
:101B600034224208B8004308B9003F2353213F21E3
:101B70000F213B12431B3B16BB12C31BBB163A087B
:101B8000B8003B08B900CE23532108006A2D802DF0
:101B90006A2D2030F9000730F8003F21E821A2210A
:101BA0006D22B521B521B521B5219322B521B521ED
:101BB000B521B521532108001821E821A2216D2269
:101BC000B521B521B521B521532108001821932253
:101BD000B521B521B521B52153210800F801F9013E
:101BE0003F216D22B521532108001821C221A221D5
:101BF0006D22B521B221B521B2215321080018214F
:101C0000C221A2216D22B521B22153210800FF2D4E
:101C1000F801F90118216608C4006708C500112EF3
:101C20003422FF30B800B900E82187215A22B521BB
:101C3000C408031D1E2EC5080319242E0130C50239
:101C40000318102EC402102E532108000330F60092
:101C50006508C4006608C5006708C6000310C40C08
:101C6000C50CC60CF60B2E2EF901F8011821083010
:101C7000F600FF30B800B900E8218721F60B412EAD
:101C8000432E3422392E5A22B521B521C408031D12
:101C90004F2EC508031D4F2EC60803195A2E0130BA
:101CA000C6020318582EC5020318582EC402582E17
:101CB0003422372EC2210430C600FF30B800B900EC
:101CC000E82187215A22B521B521C60B682E6A2E3C
:101CD00034225D2E3422FF30B800B900E82187217C
:101CE0005A22B521B521342234223422FF30B800E3
:101CF000B900E82187215A22B521B52153210800D6
:101D0000802DA526EC2685260800F801F9013F2143
:101D1000FF30B800B900E82187215A22B221B22150
:101D2000CC220230C5000430C6003422FF30B80097
:101D3000B900E8218721C60B952EB922B221B22124
:101D4000CC22C50B932E532108000530F600650800
:101D5000C4006608C5006708C6000310C40CC50CA3
:101D6000C60CF60BAD2EF901F8011821FF30B800B2
:101D7000B900E82187212030C9000430F6005A223A
:101D8000B221CC22C62E0430F6003422FF30B80037
:101D9000B900E8218721C903F60BC52EB922B2216B
:101DA000B221CC22C9080319D62EC32EC408031DA4
:101DB000DF2EC508031DDF2EC6080319092F0130C9
:101DC000C6020318E82EC5020318E82EC402E82E46
:101DD0003422BB2E53210800B221B221F901F801AF
:101DE0002E21FF30B800B900FB218721C6015A22FD
:101DF000B221B221CC22FF30B800B900FB218721EB
:101E0000B922B221B221B221B221CC223422C60B96
:101E1000F72E53210800802D812EC92D262EFF3448
:041E2000FF2D072E5D
:1020000083172030840002308000840A043080006E
:10201000840A0530800008008317203084000130D6
:1020200080000800F1128A150A1246208A110A1649
:10203000C700C0018A150A1218218A110A165021F8
:10204000003A03192E288A150A126F208A110A16DF
:102050008A150A1234228A110A161F288A150A12B2
:1020600053218A110A160800F1128A150A126E20ED
:102070008A110A165021003A031949286D21B80027
:102080008A150A1293208A110A16BC0F3A28BD0A33
:102090003A288A150A1253218A110A160800F112E9
:1020A000C0018A150A125A208A110A16C8008A1518
:1020B0000A123F218A110A165021003A03196B288F
:1020C0008A150A12A5208A110A168A150A123422C4
:1020D0008A110A165C288A150A1253218A110A16D7
:1020E0000800F1128A150A123F218A110A1650219E
:1020F000003A03198C286D21B8006D21B9008A15AA
:102100000A1281208A110A16BC0ABC0A8A150A1210
:1021100034228A110A1677288A150A1253218A1145
:102120000A160800F112C0018A150A123F218A110D
:102130000A165021003A0319A8288A150A12B72056
:102140008A110A168A150A1234228A110A16992847
:102150008A150A1253218A110A160800F1128A15EB
:102160000A1218218A110A165021003A0319CD28A3
:102170008A150A1215218A110A163A088A110A12BA
:10218000C5273B088A110A12C5278A110A168A1523
:102190000A1234228A110A16B4288A150A12532107
:1021A0008A110A160800F1128A150A126E208A1185
:1021B0000A165021003A0319ED288A150A12122135
:1021C0008A110A163A0873218A150A1234228A11D2
:1021D0000A16BC0FD928BD0AD9288A150A1253211C
:1021E0008A110A160800F1128A150A123F218A1173
:1021F0000A165021003A03190C298A150A121521D2
:102200008A110A163A0873213B0873218A150A12AB
:1022100034228A110A16F9288A150A1253218A11C2
:102220000A160800F1128A150A123F218A110A16AD
:102230005021003A03192B298A150A120F218A11FD
:102240000A163A0873213B0873218A150A123422B0
:102250008A110A1618298A150A1253218A110A1698
:102260000800F1128A150A123F218A110A1650211C
:10227000003A03194A298A150A1215218A110A16E9
:102280003A0873213B0873218A150A1234228A11F5
:102290000A1637298A150A1253218A110A160800CC
:1022A0008A110A16FF08031D5E29FE08031D5E2918
:1022B000FD08031D5E29FC08031900340130FC02EF
:1022C00003186929FD0203186929FE020318692908
:1022D000FF02FF308A110A1608008A110A12CD2760
:1022E0008A110A1608008A110A12C5278A110A16CD
:1022F00008008A110A127C228A110A1676301E0200
:10230000031C85298A150A1200288A150A12122828
:102310008A150A1235288A150A1224288A110A12E7
:1023200006231E238A110A1608008A110A12122394
:102330008A110A1608008A150A126C288A150A12D0
:102340006D288A150A1258288A150A1259288A11E6
:102350000A1608000130C10008000230C100080060
:082360000230C1000800003446
:103000000313831600309400831294120800831275
:10301000031301305B060319462802305B060319CF
:10302000522803305B060319592804305B06031944
:103030006B2809305B0603197D280A305B060319EB
:103040008F280C305B060319A1280D305B0603198D
:10305000DF280E305B060319192918305B060319A7
:10306000262919305B06031933291A305B06031928
:1030700035291B305B06031937291C305B06031901
:1030800038291D305B0603194A2908005C21711894
:103090005128CF218317203084005C0880008312E0
:1030A000031308005C21711858280330D9009921B6
:1030B00008005C2171186A288A110A16A121D9001A
:1030C0008A150A16A3218A110A16A421D9008A1585
:1030D0000A16B92108005C2171187C288A110A1689
:1030E000A121D9008A150A16A3218A110A16A42142
:1030F000D9008A150A16B92108005C2171188E289A
:103100008A110A169B21D9008A150A16A3218A1151
:103110000A169E21D9008A150A16B92108005C21D9
:103120007118A0288A110A169B21D9008A150A163F
:10313000A3218A110A169E21D9008A150A16B921DF
:103140000800F110831203137C08DD00EB21F11954
:10315000F1147D08DD00EB21F119F1147E08DD008A
:10316000EB21F119F1147808DD00EB21F119F114CC
:103170007908DD00EB21F119F1147A08DD00EB216B
:10318000F119F114CC288A110A12CD278A150A16D2
:10319000DD00EB21F119F114FE08031DD528FD080F
:1031A000031DD528FC080319DE280130FC02031892
:1031B000C328FD020318C328FE02C32808005C21AF
:1031C000711818298A110A169E21D9008A150A1623
:1031D0008317203084008001840A8001840A8001E2
:1031E000840A80019921831720308400840A840A8C
:1031F000840A0008DA00203084000008840A840A67
:10320000840A8000203084005A0880008317203010
:103210008400840A840A0008DA0020308400840ACA
:103220000008840A800020308400840A5A08800044
:1032300008005C21711825297808DD00EB21790848
:10324000DD00EB217A08DD00EB2108005C2171181C
:1032500032297808DD00EB217C08DD00EB217D08B8
:10326000DD00EB2108005C2108005C21080008005B
:103270005C2171188E288A110A16B321D9008A158B
:103280000A16A3218A110A16B321D9008A150A1633
:10329000B92108005C217118A0288A110A16B321EF
:1032A000D9008A150A16A3218A110A16B321D9005A
:1032B0008A150A16B921080071105B08DD00EB21A0
:1032C000FF30DC00CF215C085D02031D7114DC08B7
:1032D000031D6C297114CF2108008A110A16502190
:1032E0008A150A16003A031983294108D900CF210B
:1032F000711A83295C088A110A12C5278A150A16D1
:10330000D90B77296D2908008A110A1650218A15D0
:103310000A16003A031998294108D9008A110A129D
:10332000CD278A150A16DD00EB21D90B8E298429B9
:103330000800831720308400CF215C088000840AB5
:10334000D90B9C2908007808DD00EB21D90303196B
:10335000B8297908DD00EB21D9030319B8297A08C7
:10336000DD00EB21D9030319B8297B08DD00EB212F
:1033700008007C08DD00EB21D9030319CE297D0864
:10338000DD00EB21D9030319CE297E08DD00EB21F6
:10339000D9030319CE297F08DD00EB210800930132
:1033A0000622F119E22971128A110A1212238A15D2
:1033B0000A162530940094168C118C1DDD291308F3
:1033C000DC00E329711687128A110A12062394126F
:1033D0008A150A1608000622F119F72925309400EB
:1033E00094168C115D0893008C1DF429F7298A111D
:1033F0000A12D4208A150A160B1DFC2987128A117D
:103400000A12062394128A150A1608008A110A1253
:10341000292387128A110A1206238A150A16F11126
:103420008A110A12C8208A150A160B192C2A871D20
:10343000152A8A110A12D0208A150A160B1D1E2A77
:103440008716F1118A110A12C8208A150A160B195B
:103450002C2A8719272A2D2AF11508000034003458
:1038000083120313E9252F25322D83120313FB3076
:103810008605083086041030BE00203084006B25F9
:1038200080003C302002031D0F2C840ABE0B0F2C9D
:10383000C2010C30BE00213084000008C207840A97
:10384000BE0B1D2C0A30BE002530840000087C25EC
:103850008000840ABE0B262C2808B900270EB90464
:103860002608B800250EB8042C08BD002B0EBD0498
:103870002A08BC00290EBC043808BA003908BB006D
:103880003D08BB07031C452CBA0A3C08BA073C306C
:103890002002031DC02C3E302F02031DC02C2E0819
:1038A000F7002D0EF70442087702031DC32C1B30CE
:1038B0003A0203195E2C031C652CC62CFF303B0218
:1038C0000319652C0318C62C652C00303802031927
:1038D0006C2C0318722CC62C043039020319722C7C
:1038E000031CC62CCC246B25A0007B302002031DBA
:1038F000C02CC2013808F6003908F500F701F801BC
:103900000430BE00203084006B25C2077C25800077
:10391000840ABE0B842C2308F800220EF804210828
:10392000F700200EF70404251D2578087A02031DF0
:10393000C92C77087902031DC92CF50A0319F60A68
:103940003A087602031D7E2C3B087502031D7E2C6F
:103950006B257C25A0006B257C25A100200EA104F1
:1039600042082102031DC32C6B25A0007D302002DC
:10397000031DC02C83120313F7308605CC24BF2C03
:103980003130DD24322D3430DD24322D3630DD244B
:10399000322D3730DD24322D5B3065253030652502
:1039A0003830652531306525303065254330652553
:1039B000393065255D3065250800F7006B25A000CE
:1039C0007D3020020319E92C3E3020020319E92C36
:1039D000DE2C5B3065253030652541306525303083
:1039E000652530306525303065257708652533300D
:1039F0006525770A65255D30652583120313F73049
:103A00008605043086040800012E831275088D0097
:103A100076088F0077088C0078088E0083168C1744
:103A20000C158B1355308D00AA308D008C140000BE
:103A300000000C110313831208000317831275088A
:103A40008D0076088F0083168C170C140000000080
:103A500083120C08F9000E08FA0003130800B225BF
:103A60008C25080070106B25FB0055307B02031974
:103A7000422D56307B020319532D5A307B02031915
:103A8000572D322D7014F01C462D482D18124B2D39
:103A900083160912831283120313061175306525EC
:103AA0008A0110308200701476306525052C701460
:103AB000831203130611013065250130652500309E
:103AC0006525023065257010322DF01C692DDF252B
:103AD0006A2DA8250800701C742DF01C722D702D05
:103AE000C1257B2D94257B2DF018772D792DF01095
:103AF000722DF014702D0800FC00FB000F30FB0548
:103B000047307C0203188A2D41307C02031C8A2D29
:103B10000930FB077B080800031383161730890060
:103B20008312031306100800831203133D30810033
:103B30000B1106148316891BA32D70189A2D0B1DCB
:103B40009A2D0301A62D83120610080806100800FE
:103B500083120313880006148316091BAD2D8312EC
:103B6000061008008312031386168316403099004E
:103B7000243098008312903098001A081A087010A8
:103B80000800831203138C1ACF2D81010B118612AA
:103B90008C1ACF2D7018C82D0B1DC82DD12D1A08C9
:103BA000D92D1819D72D9818D72D0301D92D1812F2
:103BB00018168616C301C30BDB2DC30108000313BF
:103BC0008312061AE12D8316981CE42D83129900A6
:103BD0000800031383160B308500103086009030E8
:103BE00087001730890004309F008312033087005C
:103BF00000308600103085008316D6308100831295
:103C00000800031783127508FC398D0076088F00B1
:103C100083168C170C140000000083120C0890000F
:103C20000E0891008D0A83168C170C1400000000FA
:103C300083120C0892000E0893008D0A83168C17CD
:103C40000C140000000083120C0894000E0895006C
:103C50008D0A83168C170C140000000083120C08C8
:103C600096000E0897007508033903194C2EFF3E85
:103C70000319472EFF3E0319422E77089600780855
:103C80009700502E7708940078089500502E7708FA
:103C9000920078089300502E7708900078089100E1
:103CA0007508FC398D0076088F0010088C0011080B
:103CB0008E006C2612088C0013088E006C261408E7
:103CC0008C0015088E006C2616088C0017088E00D4
:103CD0006C2683120313080083168C170C158B13A4
:103CE00055308D00AA308D008C14000000000C119E
:063CF00083128D0A08009A
:00000001FF
